{
  "contractName": "GenerateTimeLockedWallet",
  "abi": [
    {
      "anonymous": false,
      "inputs": [
        {
          "indexed": false,
          "internalType": "address",
          "name": "wallet",
          "type": "address"
        },
        {
          "indexed": false,
          "internalType": "address",
          "name": "from",
          "type": "address"
        },
        {
          "indexed": false,
          "internalType": "address",
          "name": "to",
          "type": "address"
        },
        {
          "indexed": false,
          "internalType": "uint256",
          "name": "createdAt",
          "type": "uint256"
        },
        {
          "indexed": false,
          "internalType": "uint256",
          "name": "unlockDate",
          "type": "uint256"
        },
        {
          "indexed": false,
          "internalType": "uint256",
          "name": "amount",
          "type": "uint256"
        }
      ],
      "name": "Created",
      "type": "event"
    },
    {
      "stateMutability": "nonpayable",
      "type": "fallback"
    },
    {
      "inputs": [
        {
          "internalType": "address",
          "name": "_user",
          "type": "address"
        }
      ],
      "name": "GetWallets",
      "outputs": [
        {
          "internalType": "address[]",
          "name": "",
          "type": "address[]"
        }
      ],
      "stateMutability": "view",
      "type": "function"
    },
    {
      "inputs": [
        {
          "internalType": "address",
          "name": "_owner",
          "type": "address"
        },
        {
          "internalType": "uint256",
          "name": "_unlockDate",
          "type": "uint256"
        }
      ],
      "name": "newTimeLockedWallet",
      "outputs": [
        {
          "internalType": "contract TimeLockedWallet",
          "name": "wallet",
          "type": "address"
        }
      ],
      "stateMutability": "payable",
      "type": "function"
    }
  ],
  "bytecode": "0x608060405234801561001057600080fd5b50610d80806100206000396000f3fe60806040526004361061002d5760003560e01c80630a9ef927146100405780631ffd5bb0146100705761002e565b5b34801561003a57600080fd5b50600080fd5b61005a6004803603810190610055919061045b565b6100ad565b60405161006791906104fa565b60405180910390f35b34801561007c57600080fd5b5061009760048036038101906100929190610515565b6102e9565b6040516100a49190610600565b60405180910390f35b60003383836040516100be906103b5565b6100ca93929190610640565b604051809103906000f0801580156100e6573d6000803e3d6000fd5b5090506000803373ffffffffffffffffffffffffffffffffffffffff1673ffffffffffffffffffffffffffffffffffffffff168152602001908152602001600020819080600181540180825580915050600190039060005260206000200160009091909190916101000a81548173ffffffffffffffffffffffffffffffffffffffff021916908373ffffffffffffffffffffffffffffffffffffffff1602179055508273ffffffffffffffffffffffffffffffffffffffff163373ffffffffffffffffffffffffffffffffffffffff161461025b576000808473ffffffffffffffffffffffffffffffffffffffff1673ffffffffffffffffffffffffffffffffffffffff168152602001908152602001600020819080600181540180825580915050600190039060005260206000200160009091909190916101000a81548173ffffffffffffffffffffffffffffffffffffffff021916908373ffffffffffffffffffffffffffffffffffffffff1602179055505b8073ffffffffffffffffffffffffffffffffffffffff166108fc349081150290604051600060405180830381858888f193505050501580156102a1573d6000803e3d6000fd5b507f14d5db8c1f746c7adcbcd13cf8945dd2ac6ad58be52380b8c4933c876f76e1bf8133854286346040516102db96959493929190610677565b60405180910390a192915050565b60606000808373ffffffffffffffffffffffffffffffffffffffff1673ffffffffffffffffffffffffffffffffffffffff1681526020019081526020016000208054806020026020016040519081016040528092919081815260200182805480156103a957602002820191906000526020600020905b8160009054906101000a900473ffffffffffffffffffffffffffffffffffffffff1673ffffffffffffffffffffffffffffffffffffffff168152602001906001019080831161035f575b50505050509050919050565b610672806106d983390190565b600080fd5b600073ffffffffffffffffffffffffffffffffffffffff82169050919050565b60006103f2826103c7565b9050919050565b610402816103e7565b811461040d57600080fd5b50565b60008135905061041f816103f9565b92915050565b6000819050919050565b61043881610425565b811461044357600080fd5b50565b6000813590506104558161042f565b92915050565b60008060408385031215610472576104716103c2565b5b600061048085828601610410565b925050602061049185828601610446565b9150509250929050565b6000819050919050565b60006104c06104bb6104b6846103c7565b61049b565b6103c7565b9050919050565b60006104d2826104a5565b9050919050565b60006104e4826104c7565b9050919050565b6104f4816104d9565b82525050565b600060208201905061050f60008301846104eb565b92915050565b60006020828403121561052b5761052a6103c2565b5b600061053984828501610410565b91505092915050565b600081519050919050565b600082825260208201905092915050565b6000819050602082019050919050565b610577816103e7565b82525050565b6000610589838361056e565b60208301905092915050565b6000602082019050919050565b60006105ad82610542565b6105b7818561054d565b93506105c28361055e565b8060005b838110156105f35781516105da888261057d565b97506105e583610595565b9250506001810190506105c6565b5085935050505092915050565b6000602082019050818103600083015261061a81846105a2565b905092915050565b61062b816103e7565b82525050565b61063a81610425565b82525050565b60006060820190506106556000830186610622565b6106626020830185610622565b61066f6040830184610631565b949350505050565b600060c08201905061068c6000830189610622565b6106996020830188610622565b6106a66040830187610622565b6106b36060830186610631565b6106c06080830185610631565b6106cd60a0830184610631565b97965050505050505056fe608060405234801561001057600080fd5b5060405161067238038061067283398181016040528101906100329190610162565b826000806101000a81548173ffffffffffffffffffffffffffffffffffffffff021916908373ffffffffffffffffffffffffffffffffffffffff16021790555081600160006101000a81548173ffffffffffffffffffffffffffffffffffffffff021916908373ffffffffffffffffffffffffffffffffffffffff16021790555080600281905550426003819055505050506101b5565b600080fd5b600073ffffffffffffffffffffffffffffffffffffffff82169050919050565b60006100f9826100ce565b9050919050565b610109816100ee565b811461011457600080fd5b50565b60008151905061012681610100565b92915050565b6000819050919050565b61013f8161012c565b811461014a57600080fd5b50565b60008151905061015c81610136565b92915050565b60008060006060848603121561017b5761017a6100c9565b5b600061018986828701610117565b935050602061019a86828701610117565b92505060406101ab8682870161014d565b9150509250925092565b6104ae806101c46000396000f3fe6080604052600436106100595760003560e01c806302d05d3f146100d4578063370158ea146100ff5780633ccfd60b1461012e57806369ac5721146101455780638da5cb5b14610170578063cf09e0d01461019b57610099565b36610099577f88a5966d370b9919b20f3e2c13ff65706f196a4e32cc2c12bf57088f88525874333460405161008f9291906103c6565b60405180910390a1005b7f88a5966d370b9919b20f3e2c13ff65706f196a4e32cc2c12bf57088f8852587433346040516100ca9291906103c6565b60405180910390a1005b3480156100e057600080fd5b506100e96101c6565b6040516100f691906103ef565b60405180910390f35b34801561010b57600080fd5b506101146101ea565b60405161012595949392919061040a565b60405180910390f35b34801561013a57600080fd5b5061014361024f565b005b34801561015157600080fd5b5061015a61033a565b604051610167919061045d565b60405180910390f35b34801561017c57600080fd5b50610185610340565b60405161019291906103ef565b60405180910390f35b3480156101a757600080fd5b506101b0610366565b6040516101bd919061045d565b60405180910390f35b60008054906101000a900473ffffffffffffffffffffffffffffffffffffffff1681565b60008060008060008060009054906101000a900473ffffffffffffffffffffffffffffffffffffffff16600160009054906101000a900473ffffffffffffffffffffffffffffffffffffffff1660025460035447945094509450945094509091929394565b600160009054906101000a900473ffffffffffffffffffffffffffffffffffffffff1673ffffffffffffffffffffffffffffffffffffffff163373ffffffffffffffffffffffffffffffffffffffff16146102a957600080fd5b6002544210156102b857600080fd5b3373ffffffffffffffffffffffffffffffffffffffff166108fc479081150290604051600060405180830381858888f193505050501580156102fe573d6000803e3d6000fd5b507fb244b9a17ad633c6e83b7983ee04320484956a68ddbe96a0b70dfca1cf19d72333476040516103309291906103c6565b60405180910390a1565b60025481565b600160009054906101000a900473ffffffffffffffffffffffffffffffffffffffff1681565b60035481565b600073ffffffffffffffffffffffffffffffffffffffff82169050919050565b60006103978261036c565b9050919050565b6103a78161038c565b82525050565b6000819050919050565b6103c0816103ad565b82525050565b60006040820190506103db600083018561039e565b6103e860208301846103b7565b9392505050565b6000602082019050610404600083018461039e565b92915050565b600060a08201905061041f600083018861039e565b61042c602083018761039e565b61043960408301866103b7565b61044660608301856103b7565b61045360808301846103b7565b9695505050505050565b600060208201905061047260008301846103b7565b9291505056fea2646970667358221220d673ddb7bf0c0f556169c9a3147fa83829f4d778bc15ce4b28cd459437d9bdfc64736f6c634300080a0033a2646970667358221220a179ead529f22bcaf4a46b5ea2e83f635d4139b8cb64d9a33f6ace2b93f44be764736f6c634300080a0033",
  "immutableReferences": {},
  "source": "// SPDX-License-Identifier: MIT\npragma solidity ^0.8.10;\n\nimport \"./TimeLockedWallet.sol\";\n\ncontract GenerateTimeLockedWallet {\n \n    mapping(address => address[]) wallets;\n\n    function GetWallets(address _user) \n        public\n        view\n        returns(address[] memory)\n    {\n        return wallets[_user];\n    }\n\n    function newTimeLockedWallet(address _owner, uint256 _unlockDate)\n        payable\n        public\n        returns(TimeLockedWallet wallet)\n    {\n        // Create new wallet.\n        wallet = new TimeLockedWallet(msg.sender, _owner, _unlockDate);\n        \n        // Add wallet to sender's wallets.\n        wallets[msg.sender].push(address(wallet));\n\n        // If owner is the same as sender then add wallet to sender's wallets too.\n        if(msg.sender != _owner){\n            wallets[_owner].push(address(wallet));\n        }\n\n        // Send ether from this transaction to the created contract.\n        payable(wallet).transfer(msg.value);\n\n        // Emit event.\n       emit Created(address(wallet), msg.sender, _owner, block.timestamp, _unlockDate, msg.value);\n    }\n\n    // Prevents accidental sending of ether to the factory\n    fallback () external {\n        revert();\n    }\n\n    event Created(address wallet, address from, address to, uint256 createdAt, uint256 unlockDate, uint256 amount);\n}",
  "sourcePath": "/Users/skyegee/Developer/Bootcamp/Bootcamp-Final-Project/tut/contracts/GenerateTimeLockedWallet.sol",
  "compiler": {
    "name": "solc",
    "version": "0.8.10+commit.fc410830.Emscripten.clang"
  },
  "schemaVersion": "3.4.3",
  "updatedAt": "2021-11-22T10:06:07.854Z",
  "devdoc": {
    "kind": "dev",
    "methods": {},
    "version": 1
  },
  "userdoc": {
    "kind": "user",
    "methods": {},
    "version": 1
  }
}