{
  "contractName": "GenerateTimeLockedWallet",
  "abi": [
    {
      "anonymous": false,
      "inputs": [
        {
          "indexed": false,
          "internalType": "address",
          "name": "wallet",
          "type": "address"
        },
        {
          "indexed": false,
          "internalType": "address",
          "name": "from",
          "type": "address"
        },
        {
          "indexed": false,
          "internalType": "address",
          "name": "to",
          "type": "address"
        },
        {
          "indexed": false,
          "internalType": "uint256",
          "name": "createdAt",
          "type": "uint256"
        },
        {
          "indexed": false,
          "internalType": "uint256",
          "name": "unlockDate",
          "type": "uint256"
        },
        {
          "indexed": false,
          "internalType": "uint256",
          "name": "amount",
          "type": "uint256"
        }
      ],
      "name": "Created",
      "type": "event"
    },
    {
      "stateMutability": "nonpayable",
      "type": "fallback"
    },
    {
      "inputs": [
        {
          "internalType": "address",
          "name": "_user",
          "type": "address"
        }
      ],
      "name": "GetWallets",
      "outputs": [
        {
          "internalType": "address[]",
          "name": "",
          "type": "address[]"
        }
      ],
      "stateMutability": "view",
      "type": "function",
      "constant": true
    },
    {
      "inputs": [
        {
          "internalType": "address payable",
          "name": "_owner",
          "type": "address"
        },
        {
          "internalType": "uint256",
          "name": "_unlockDate",
          "type": "uint256"
        }
      ],
      "name": "newTimeLockedWallet",
      "outputs": [
        {
          "internalType": "contract TimeLockedWallet",
          "name": "wallet",
          "type": "address"
        }
      ],
      "stateMutability": "payable",
      "type": "function",
      "payable": true
    }
  ],
  "bytecode": "0x608060405234801561001057600080fd5b50610e21806100206000396000f3fe60806040526004361061002d5760003560e01c80630a9ef927146100405780631ffd5bb0146100705761002e565b5b34801561003a57600080fd5b50600080fd5b61005a6004803603810190610055919061045b565b6100ad565b60405161006791906104fa565b60405180910390f35b34801561007c57600080fd5b5061009760048036038101906100929190610553565b6102e9565b6040516100a4919061063e565b60405180910390f35b60003383836040516100be906103b5565b6100ca9392919061067e565b604051809103906000f0801580156100e6573d6000803e3d6000fd5b5090506000803373ffffffffffffffffffffffffffffffffffffffff1673ffffffffffffffffffffffffffffffffffffffff168152602001908152602001600020819080600181540180825580915050600190039060005260206000200160009091909190916101000a81548173ffffffffffffffffffffffffffffffffffffffff021916908373ffffffffffffffffffffffffffffffffffffffff1602179055508273ffffffffffffffffffffffffffffffffffffffff163373ffffffffffffffffffffffffffffffffffffffff161461025b576000808473ffffffffffffffffffffffffffffffffffffffff1673ffffffffffffffffffffffffffffffffffffffff168152602001908152602001600020819080600181540180825580915050600190039060005260206000200160009091909190916101000a81548173ffffffffffffffffffffffffffffffffffffffff021916908373ffffffffffffffffffffffffffffffffffffffff1602179055505b8073ffffffffffffffffffffffffffffffffffffffff166108fc349081150290604051600060405180830381858888f193505050501580156102a1573d6000803e3d6000fd5b507f14d5db8c1f746c7adcbcd13cf8945dd2ac6ad58be52380b8c4933c876f76e1bf8133854286346040516102db969594939291906106f7565b60405180910390a192915050565b60606000808373ffffffffffffffffffffffffffffffffffffffff1673ffffffffffffffffffffffffffffffffffffffff1681526020019081526020016000208054806020026020016040519081016040528092919081815260200182805480156103a957602002820191906000526020600020905b8160009054906101000a900473ffffffffffffffffffffffffffffffffffffffff1673ffffffffffffffffffffffffffffffffffffffff168152602001906001019080831161035f575b50505050509050919050565b6106938061075983390190565b600080fd5b600073ffffffffffffffffffffffffffffffffffffffff82169050919050565b60006103f2826103c7565b9050919050565b610402816103e7565b811461040d57600080fd5b50565b60008135905061041f816103f9565b92915050565b6000819050919050565b61043881610425565b811461044357600080fd5b50565b6000813590506104558161042f565b92915050565b60008060408385031215610472576104716103c2565b5b600061048085828601610410565b925050602061049185828601610446565b9150509250929050565b6000819050919050565b60006104c06104bb6104b6846103c7565b61049b565b6103c7565b9050919050565b60006104d2826104a5565b9050919050565b60006104e4826104c7565b9050919050565b6104f4816104d9565b82525050565b600060208201905061050f60008301846104eb565b92915050565b6000610520826103c7565b9050919050565b61053081610515565b811461053b57600080fd5b50565b60008135905061054d81610527565b92915050565b600060208284031215610569576105686103c2565b5b60006105778482850161053e565b91505092915050565b600081519050919050565b600082825260208201905092915050565b6000819050602082019050919050565b6105b581610515565b82525050565b60006105c783836105ac565b60208301905092915050565b6000602082019050919050565b60006105eb82610580565b6105f5818561058b565b93506106008361059c565b8060005b8381101561063157815161061888826105bb565b9750610623836105d3565b925050600181019050610604565b5085935050505092915050565b6000602082019050818103600083015261065881846105e0565b905092915050565b610669816103e7565b82525050565b61067881610425565b82525050565b60006060820190506106936000830186610660565b6106a06020830185610660565b6106ad604083018461066f565b949350505050565b6106be81610515565b82525050565b60006106cf826104a5565b9050919050565b60006106e1826106c4565b9050919050565b6106f1816106d6565b82525050565b600060c08201905061070c60008301896106b5565b61071960208301886106b5565b61072660408301876106e8565b610733606083018661066f565b610740608083018561066f565b61074d60a083018461066f565b97965050505050505056fe608060405234801561001057600080fd5b5060405161069338038061069383398181016040528101906100329190610162565b826000806101000a81548173ffffffffffffffffffffffffffffffffffffffff021916908373ffffffffffffffffffffffffffffffffffffffff16021790555081600160006101000a81548173ffffffffffffffffffffffffffffffffffffffff021916908373ffffffffffffffffffffffffffffffffffffffff16021790555080600281905550426003819055505050506101b5565b600080fd5b600073ffffffffffffffffffffffffffffffffffffffff82169050919050565b60006100f9826100ce565b9050919050565b610109816100ee565b811461011457600080fd5b50565b60008151905061012681610100565b92915050565b6000819050919050565b61013f8161012c565b811461014a57600080fd5b50565b60008151905061015c81610136565b92915050565b60008060006060848603121561017b5761017a6100c9565b5b600061018986828701610117565b935050602061019a86828701610117565b92505060406101ab8682870161014d565b9150509250925092565b6104cf806101c46000396000f3fe6080604052600436106100595760003560e01c806302d05d3f146100d4578063370158ea146100ff5780633ccfd60b1461012e57806369ac5721146101455780638da5cb5b14610170578063cf09e0d01461019b57610099565b36610099577f88a5966d370b9919b20f3e2c13ff65706f196a4e32cc2c12bf57088f88525874333460405161008f9291906103c6565b60405180910390a1005b7f88a5966d370b9919b20f3e2c13ff65706f196a4e32cc2c12bf57088f8852587433346040516100ca9291906103c6565b60405180910390a1005b3480156100e057600080fd5b506100e96101c6565b6040516100f69190610410565b60405180910390f35b34801561010b57600080fd5b506101146101ea565b60405161012595949392919061042b565b60405180910390f35b34801561013a57600080fd5b5061014361024f565b005b34801561015157600080fd5b5061015a61033a565b604051610167919061047e565b60405180910390f35b34801561017c57600080fd5b50610185610340565b6040516101929190610410565b60405180910390f35b3480156101a757600080fd5b506101b0610366565b6040516101bd919061047e565b60405180910390f35b60008054906101000a900473ffffffffffffffffffffffffffffffffffffffff1681565b60008060008060008060009054906101000a900473ffffffffffffffffffffffffffffffffffffffff16600160009054906101000a900473ffffffffffffffffffffffffffffffffffffffff1660025460035447945094509450945094509091929394565b600160009054906101000a900473ffffffffffffffffffffffffffffffffffffffff1673ffffffffffffffffffffffffffffffffffffffff163373ffffffffffffffffffffffffffffffffffffffff16146102a957600080fd5b6002544210156102b857600080fd5b3373ffffffffffffffffffffffffffffffffffffffff166108fc479081150290604051600060405180830381858888f193505050501580156102fe573d6000803e3d6000fd5b507fb244b9a17ad633c6e83b7983ee04320484956a68ddbe96a0b70dfca1cf19d72333476040516103309291906103c6565b60405180910390a1565b60025481565b600160009054906101000a900473ffffffffffffffffffffffffffffffffffffffff1681565b60035481565b600073ffffffffffffffffffffffffffffffffffffffff82169050919050565b60006103978261036c565b9050919050565b6103a78161038c565b82525050565b6000819050919050565b6103c0816103ad565b82525050565b60006040820190506103db600083018561039e565b6103e860208301846103b7565b9392505050565b60006103fa8261036c565b9050919050565b61040a816103ef565b82525050565b60006020820190506104256000830184610401565b92915050565b600060a082019050610440600083018861039e565b61044d602083018761039e565b61045a60408301866103b7565b61046760608301856103b7565b61047460808301846103b7565b9695505050505050565b600060208201905061049360008301846103b7565b9291505056fea2646970667358221220f57c5b4e090fb807ba79078391d8d92f14fd94835ab489f09ce2850c6d89027264736f6c634300080a0033a26469706673582212202f9951a952189f88a0b2ce2bbe2ce2d3bac1abfbd97433964a51004db4440a2864736f6c634300080a0033",
  "immutableReferences": {},
  "source": "// SPDX-License-Identifier: MIT\npragma solidity >=0.4.22 <0.9.0;\n\n// contract GenerateTimeLockedWallet {\n//   constructor() public {\n//   }\n// }\nimport \"./TimeLockedWallet.sol\";\n\ncontract GenerateTimeLockedWallet {\n \n    mapping(address => address[]) wallets;\n\n    function GetWallets(address _user) \n        public\n        view\n        returns(address[] memory)\n    {\n        return wallets[_user];\n    }\n\n    function newTimeLockedWallet(address payable _owner, uint256 _unlockDate)\n        payable\n        public\n        returns(TimeLockedWallet wallet)\n    {\n        // Create new wallet.\n        wallet = new TimeLockedWallet(payable(msg.sender), _owner, _unlockDate);\n        \n        // Add wallet to sender's wallets.\n        wallets[payable(msg.sender)].push(address(wallet));\n\n        // If owner is the same as sender then add wallet to sender's wallets too.\n        if(msg.sender != _owner){\n            wallets[_owner].push(address(wallet));\n        }\n\n        // Send ether from this transaction to the created contract.\n        payable(wallet).transfer(msg.value);\n\n        // Emit event.\n       emit Created(address(wallet), msg.sender, _owner, block.timestamp, _unlockDate, msg.value);\n    }\n\n    // Prevents accidental sending of ether to the wallet generator\n    fallback () external {\n        revert();\n    }\n\n    event Created(address wallet, address from, address to, uint256 createdAt, uint256 unlockDate, uint256 amount);\n}",
  "sourcePath": "/Users/skyegee/Developer/Bootcamp/blockchain-developer-bootcamp-final-project-1/contracts/GenerateTimeLockedWallet.sol",
  "compiler": {
    "name": "solc",
    "version": "0.8.10+commit.fc410830.Emscripten.clang"
  },
  "schemaVersion": "3.4.3",
  "updatedAt": "2021-11-29T20:29:00.151Z",
  "networkType": "ethereum",
  "devdoc": {
    "kind": "dev",
    "methods": {},
    "version": 1
  },
  "userdoc": {
    "kind": "user",
    "methods": {},
    "version": 1
  }
}