{
  "contractName": "TimeLockedWallet",
  "abi": [
    {
      "inputs": [
        {
          "internalType": "address payable",
          "name": "_creator",
          "type": "address"
        },
        {
          "internalType": "address payable",
          "name": "_owner",
          "type": "address"
        },
        {
          "internalType": "uint256",
          "name": "_unlockDate",
          "type": "uint256"
        }
      ],
      "stateMutability": "nonpayable",
      "type": "constructor"
    },
    {
      "anonymous": false,
      "inputs": [
        {
          "indexed": false,
          "internalType": "address",
          "name": "from",
          "type": "address"
        },
        {
          "indexed": false,
          "internalType": "uint256",
          "name": "amount",
          "type": "uint256"
        }
      ],
      "name": "Received",
      "type": "event"
    },
    {
      "anonymous": false,
      "inputs": [
        {
          "indexed": false,
          "internalType": "address",
          "name": "to",
          "type": "address"
        },
        {
          "indexed": false,
          "internalType": "uint256",
          "name": "amount",
          "type": "uint256"
        }
      ],
      "name": "Withdrew",
      "type": "event"
    },
    {
      "stateMutability": "payable",
      "type": "fallback"
    },
    {
      "inputs": [],
      "name": "createdAt",
      "outputs": [
        {
          "internalType": "uint256",
          "name": "",
          "type": "uint256"
        }
      ],
      "stateMutability": "view",
      "type": "function"
    },
    {
      "inputs": [],
      "name": "creator",
      "outputs": [
        {
          "internalType": "address payable",
          "name": "",
          "type": "address"
        }
      ],
      "stateMutability": "view",
      "type": "function"
    },
    {
      "inputs": [],
      "name": "owner",
      "outputs": [
        {
          "internalType": "address payable",
          "name": "",
          "type": "address"
        }
      ],
      "stateMutability": "view",
      "type": "function"
    },
    {
      "inputs": [],
      "name": "unlockDate",
      "outputs": [
        {
          "internalType": "uint256",
          "name": "",
          "type": "uint256"
        }
      ],
      "stateMutability": "view",
      "type": "function"
    },
    {
      "stateMutability": "payable",
      "type": "receive"
    },
    {
      "inputs": [],
      "name": "withdraw",
      "outputs": [],
      "stateMutability": "nonpayable",
      "type": "function"
    },
    {
      "inputs": [],
      "name": "info",
      "outputs": [
        {
          "internalType": "address",
          "name": "",
          "type": "address"
        },
        {
          "internalType": "address",
          "name": "",
          "type": "address"
        },
        {
          "internalType": "uint256",
          "name": "",
          "type": "uint256"
        },
        {
          "internalType": "uint256",
          "name": "",
          "type": "uint256"
        },
        {
          "internalType": "uint256",
          "name": "",
          "type": "uint256"
        }
      ],
      "stateMutability": "view",
      "type": "function"
    }
  ],
  "bytecode": "0x608060405234801561001057600080fd5b5060405161069338038061069383398181016040528101906100329190610162565b826000806101000a81548173ffffffffffffffffffffffffffffffffffffffff021916908373ffffffffffffffffffffffffffffffffffffffff16021790555081600160006101000a81548173ffffffffffffffffffffffffffffffffffffffff021916908373ffffffffffffffffffffffffffffffffffffffff16021790555080600281905550426003819055505050506101b5565b600080fd5b600073ffffffffffffffffffffffffffffffffffffffff82169050919050565b60006100f9826100ce565b9050919050565b610109816100ee565b811461011457600080fd5b50565b60008151905061012681610100565b92915050565b6000819050919050565b61013f8161012c565b811461014a57600080fd5b50565b60008151905061015c81610136565b92915050565b60008060006060848603121561017b5761017a6100c9565b5b600061018986828701610117565b935050602061019a86828701610117565b92505060406101ab8682870161014d565b9150509250925092565b6104cf806101c46000396000f3fe6080604052600436106100595760003560e01c806302d05d3f146100d4578063370158ea146100ff5780633ccfd60b1461012e57806369ac5721146101455780638da5cb5b14610170578063cf09e0d01461019b57610099565b36610099577f88a5966d370b9919b20f3e2c13ff65706f196a4e32cc2c12bf57088f88525874333460405161008f9291906103c6565b60405180910390a1005b7f88a5966d370b9919b20f3e2c13ff65706f196a4e32cc2c12bf57088f8852587433346040516100ca9291906103c6565b60405180910390a1005b3480156100e057600080fd5b506100e96101c6565b6040516100f69190610410565b60405180910390f35b34801561010b57600080fd5b506101146101ea565b60405161012595949392919061042b565b60405180910390f35b34801561013a57600080fd5b5061014361024f565b005b34801561015157600080fd5b5061015a61033a565b604051610167919061047e565b60405180910390f35b34801561017c57600080fd5b50610185610340565b6040516101929190610410565b60405180910390f35b3480156101a757600080fd5b506101b0610366565b6040516101bd919061047e565b60405180910390f35b60008054906101000a900473ffffffffffffffffffffffffffffffffffffffff1681565b60008060008060008060009054906101000a900473ffffffffffffffffffffffffffffffffffffffff16600160009054906101000a900473ffffffffffffffffffffffffffffffffffffffff1660025460035447945094509450945094509091929394565b600160009054906101000a900473ffffffffffffffffffffffffffffffffffffffff1673ffffffffffffffffffffffffffffffffffffffff163373ffffffffffffffffffffffffffffffffffffffff16146102a957600080fd5b6002544210156102b857600080fd5b3373ffffffffffffffffffffffffffffffffffffffff166108fc479081150290604051600060405180830381858888f193505050501580156102fe573d6000803e3d6000fd5b507fb244b9a17ad633c6e83b7983ee04320484956a68ddbe96a0b70dfca1cf19d72333476040516103309291906103c6565b60405180910390a1565b60025481565b600160009054906101000a900473ffffffffffffffffffffffffffffffffffffffff1681565b60035481565b600073ffffffffffffffffffffffffffffffffffffffff82169050919050565b60006103978261036c565b9050919050565b6103a78161038c565b82525050565b6000819050919050565b6103c0816103ad565b82525050565b60006040820190506103db600083018561039e565b6103e860208301846103b7565b9392505050565b60006103fa8261036c565b9050919050565b61040a816103ef565b82525050565b60006020820190506104256000830184610401565b92915050565b600060a082019050610440600083018861039e565b61044d602083018761039e565b61045a60408301866103b7565b61046760608301856103b7565b61047460808301846103b7565b9695505050505050565b600060208201905061049360008301846103b7565b9291505056fea2646970667358221220f57c5b4e090fb807ba79078391d8d92f14fd94835ab489f09ce2850c6d89027264736f6c634300080a0033",
  "immutableReferences": {},
  "source": "// SPDX-License-Identifier: MIT\npragma solidity >=0.4.22 <0.9.0;\n\n// contract TimeLockedWallet {\n//   constructor() public {\n//   }\n// }\n/// @title Contract for time locked wallet acting as trust fund for minor beneficiaries\ncontract TimeLockedWallet {\n\n  address payable public creator;\n  address payable public owner;\n  uint256 public unlockDate;\n  uint256 public createdAt;\n\n  modifier onlyOwner {\n      require(msg.sender == owner);\n      _;\n  }\n\n  constructor (\n      address payable _creator,\n      address payable _owner,\n      uint256 _unlockDate\n   ) {\n      creator = _creator;\n      owner = _owner;\n      unlockDate = _unlockDate;\n      createdAt = block.timestamp;\n  }\n\n  // keep all the ether sent to this address\n  fallback() external payable  { \n     emit Received(msg.sender, msg.value);\n  }\n  receive() external payable {\n      emit Received(msg.sender, msg.value);\n  }\n\n\n\n  // callable by owner only, after specified time\n  function withdraw() onlyOwner public {\n     require(block.timestamp >= unlockDate);\n     //now send all the balance\n     payable(msg.sender).transfer(address(this).balance);\n     emit Withdrew(msg.sender, address(this).balance);\n  }\n\n\n  function info() public view returns(address, address, uint256, uint256, uint256) {\n      return (creator, owner, unlockDate, createdAt, address(this).balance);\n  }\n\n  event Received(address from, uint256 amount);\n  event Withdrew(address to, uint256 amount);\n}",
  "sourcePath": "/Users/skyegee/Developer/Bootcamp/blockchain-developer-bootcamp-final-project-1/contracts/TimeLockedWallet.sol",
  "compiler": {
    "name": "solc",
    "version": "0.8.10+commit.fc410830.Emscripten.clang"
  },
  "schemaVersion": "3.4.3",
  "updatedAt": "2021-11-29T14:40:36.479Z",
  "devdoc": {
    "kind": "dev",
    "methods": {},
    "title": "Contract for time locked wallet acting as trust fund for minor beneficiaries",
    "version": 1
  },
  "userdoc": {
    "kind": "user",
    "methods": {},
    "version": 1
  }
}